:100000000C9462000C9440080C9419080C948A001B
:100010000C948A000C948A000C948A000C948A0038
:100020000C948A000C948A000C948A000C948A0028
:100030000C948A000C948A000C948A000C948A0018
:100040000C94CF070C948A000C948D080C946708CC
:100050000C948A000C948A000C948A000C948A00F8
:100060000C94B0060C948A000000000023002600C7
:10007000290000000008000201000003040700003E
:1000800000000000000000000000250028002B00F8
:1000900000000000240027002A00040404040404D3
:1000A0000404020202020202030303030303010227
:1000B00004081020408001020408102001020408F6
:1000C0001020BF0811241FBECFEFD4E0DEBFCDBF8C
:1000D00011E0A0E0B1E0EAEDF0E202C005900D927F
:1000E000A43EB107D9F723E0A4EEB1E001C01D9210
:1000F000AC38B207E1F710E0C2E6D0E004C02197C7
:10010000FE010E948D0DC136D107C9F70E94080972
:100110000C946B100C94000090E0FC01E255FF4F32
:10012000249186569F4FFC018491882399F090E09A
:10013000880F991FFC01E057FF4FA591B491FC0176
:10014000EA57FF4F859194918FB7F894EC91E22B89
:10015000EC938FBF089520918A02260F3327331F17
:1001600021323105ECF42091B002FC0190E080E0F6
:10017000243069F082E00895A0918A022191AC01B7
:1001800048595D4FA40FB52FB11D2C9301968617CA
:1001900098F380918A02680F60938A0280E0089544
:1001A00081E00895089508950895E0915F02809197
:1001B0005E02E81730F4F0E0E25CFD4F808190E0F1
:1001C00008958FEF9FEF089590915F0280915E02F6
:1001D0002FEF3FEF981748F4E92FF0E0E25CFD4F76
:1001E000208130E09F5F90935F02C9010895809164
:1001F0005E0290915F02891B990B0895CF92DF9266
:10020000EF92FF920F931F93CF93DF937C01CB016B
:100210008A0120913D02222389F0EB016B01C40E7B
:10022000D51ECC15DD0569F06991D701ED91FC91E2
:100230000190F081E02DC7010995F3CF642F0E9452
:10024000AB00C801DF91CF911F910F91FF90EF900C
:10025000DF90CF900895CF93DF931F92CDB7DEB795
:10026000698320913D022223F9F02091600220321F
:1002700058F021E030E0FC013383228390E080E0FD
:100280000F90DF91CF91089580916102E82FF0E007
:10029000E35EFD4F998190838F5F8093610280932D
:1002A000600281E090E0ECCF61E0CE0101960E9417
:1002B000AB00F7CF833081F028F4813099F08230A1
:1002C000A9F008958730A9F08830C9F08430B1F4DE
:1002D000809180008F7D03C0809180008F77809314
:1002E0008000089584B58F7784BD089584B58F7D8F
:1002F000FBCF8091B0008F778093B00008958091FC
:10030000B0008F7DF9CFCF93DF93282F30E0F90134
:10031000EE58FF4F8491F901E255FF4FD491F90156
:10032000E656FF4FC491CC23A1F081110E945A01DF
:10033000EC2FF0E0EE0FFF1FE859FF4FA591B491AD
:10034000EC91ED2381E090E009F480E0DF91CF9122
:10035000089580E090E0FACF1F93CF93DF93282F8A
:1003600030E0F901EE58FF4F8491F901E255FF4F5B
:10037000D491F901E656FF4FC491CC23A9F0162F72
:1003800081110E945A01EC2FF0E0EE0FFF1FEA5797
:10039000FF4FA591B4918FB7F894EC91111108C05B
:1003A000D095DE23DC938FBFDF91CF911F9108950D
:1003B000DE2BF8CF1092B00281E08093B20210924F
:1003C000B10261E082E10E94AC0161E083E10E9440
:1003D000AC01E9EBF0E080818E7F808380818D7FAE
:1003E000808388E48093B80085E48093BC000895FE
:1003F000CF93DF9391E0909367028823B9F0C09187
:10040000B800D091BA008091BC008A7B8093BC0078
:1004100060E082E10E94AC0160E083E10E94AC01F7
:100420000E94DA01D093BA00C093B800DF91CF9157
:1004300008953FB7F8948091190290911A02A09103
:100440001B02B0911C0226B5A89B05C02F3F19F0D6
:100450000196A11DB11D3FBFBA2FA92F982F882744
:10046000BC01CD01620F711D811D911D42E0660F1F
:10047000771F881F991F4A95D1F708958F929F92F1
:10048000AF92BF92CF92DF92EF92FF924B015C014D
:100490000E9419026B017C010E9419026C197D09EE
:1004A0008E099F09683E734081059105A8F321E0FC
:1004B000821A9108A108B10888EEC80E83E0D81E00
:1004C000E11CF11C81149104A104B10429F7FF90EF
:1004D000EF90DF90CF90BF90AF909F908F90089556
:1004E0002FB7F8946091150270911602809117024F
:1004F000909118022FBF08950895AF92BF92CF92A6
:10050000DF92EF92FF920F931F93CF93DF936C01D3
:100510007B018B01040F151FEB015E01AE18BF08B4
:10052000C017D10759F06991D601ED91FC91019066
:10053000F081E02DC6010995892B79F7C501DF917E
:10054000CF911F910F91FF90EF90DF90CF90BF90D0
:10055000AF900895FC01538D448D252F30E0842FFA
:1005600090E0821B930B541710F0CF9608950197DB
:100570000895FC01918D828D981761F0A28DAE0FC8
:10058000BF2FB11D5D968C91928D9F5F9F73928F4F
:1005900090E008958FEF9FEF0895FC01918D828D7B
:1005A000981731F0828DE80FF11D858D90E0089548
:1005B0008FEF9FEF0895FC01918D228D892F90E0A0
:1005C000805C9F4F821B91098F739927089582EE5B
:1005D00092E00E94DB0221E0892B09F420E0822FC7
:1005E000089580E090E0892B29F00E94E7028111B4
:1005F0000C9400000895FC01A48DA80FB92FB11D23
:10060000A35ABF4F2C91848D90E001968F73992748
:10061000848FA689B7892C93A089B1898C91837026
:1006200080648C93938D848D981306C00288F3891F
:10063000E02D80818F7D80830895EF92FF920F934C
:100640001F93CF93DF93EC0181E0888F9B8D8C8D7E
:1006500098131AC0E889F989808185FF15C09FB772
:10066000F894EE89FF896083E889F9898081837035
:10067000806480839FBF81E090E0DF91CF911F91E4
:100680000F91FF90EF900895F62E0B8D10E00F5F05
:100690001F4F0F731127E02E8C8D8E110CC00FB6DB
:1006A00007FCFACFE889F989808185FFF5CFCE0173
:1006B0000E94FB02F1CFEB8DEC0FFD2FF11DE35AF1
:1006C000FF4FF0829FB7F8940B8FEA89FB898081F6
:1006D0008062CFCFCF93DF93EC01888D8823B9F070
:1006E000AA89BB89E889F9898C9185FD03C080813D
:1006F00086FD0DC00FB607FCF7CF8C9185FFF2CFBA
:10070000808185FFEDCFCE010E94FB02E9CFDF9112
:10071000CF910895CF92DF92EF92FF920F931F93A4
:10072000CF93DF93FC01C48121E020933D02C0936D
:10073000E80110926102109260028485682B86EDB8
:1007400092E00E942B01D0916002D13208F092C059
:100750000E9419026B017C018091B002811165C079
:1007600082E08093B00281E08093B2028FEF8093A9
:10077000AF021092D402D093D302ADE1B2E0E3EB2A
:10078000F2E080E0D81385C01092D5028091D502A6
:10079000CC0FC82BC093D5028091B102813009F0F3
:1007A0007CC01092B1020E9419026B017C01809101
:1007B000D5028093BB008091630290916402A09166
:1007C0006502B0916602892B8A2B8B2B99F00E94CF
:1007D0001902009163021091640220916502309128
:1007E00066026C197D098E099F09061717072807ED
:1007F0003907E0F18091BC0083FDD9CF85EC80936F
:10080000BC000E9419026B017C018091B002823011
:1008100009F445C08091AF028F3F61F18091AF0232
:10082000803241F18091AF0225C0809163029091A6
:100830006402A0916502B0916602892B8A2B8B2BF2
:1008400009F48ACF0E941902009163021091640298
:1008500020916502309166026C197D098E099F090D
:10086000061717072807390708F076CF809162022C
:100870000E94F801109261021092600210923D02F3
:10088000DF91CF911F910F91FF90EF90DF90CF906C
:1008900008959D9191938F5F75CF85EEB0CF809134
:1008A000630290916402A0916502B0916602892B67
:1008B0008A2B8B2B09F4A9CF0E94190200916302A5
:1008C0001091640220916502309166026C197D09D5
:1008D0008E099F09061717072807390708F095CFD3
:1008E000C5CF089590E080E008950F931F93CF93B4
:1008F0008C01C62F0E948A036C2F6460C8010E947D
:100900008A036C2F6B7FC8010E948A0383EC90E0FE
:100910000197F1F7CF911F910F9108950F931F93B6
:10092000CF93DF938C01D62FC42F607F642B0E945E
:10093000750480E1D89FB00111246C2BC801DF91B0
:10094000CF911F910F910C947504CF93DF93CDB786
:10095000DEB728970FB6F894DEBF0FBECDBF98E084
:10096000E6E0F1E0DE01119601900D929A95E1F733
:1009700090918703981708F48FEF90E0880F991FE4
:1009800021E030E02C0F3D1F820F931FFC0160819E
:10099000606840E08FE793E028960FB6F894DEBFDA
:1009A0000FBECDBFDF91CF910C948E0440E061E08B
:1009B0008FE793E00E948E048BE39FE10197F1F7AC
:1009C00080918803882319F080E00C94A504089591
:1009D0000E94D6040E94700210920C0210920D0226
:1009E00010920E0210920F02109208021092090249
:1009F00010920A0210920B021092FF011092FE0157
:100A00001092040210920502109206021092070240
:100A10001092000210920102109202021092030240
:100A200010921002109211021092120210921302F0
:100A30001092F0011092F1011092F2011092F30164
:100A400060E084E00E94AC0160E08BE00E94AC01B9
:100A500060E08CE00E94AC0160E085E00E94AC01A7
:100A60001092F4011092EF011092EE011092ED013C
:100A7000089541E00E948E0481E090E0089585EDA4
:100A80008093BC008091630290916402A091650202
:100A9000B09166020796A11DB11D23E0B695A795FA
:100AA000979587952A95D1F72091BC0024FD03C026
:100AB0001092B002089540916302509164026091D7
:100AC000650270916602452B462B472B69F3009710
:100AD000A105B10541F025E32A95F1F70000019742
:100AE000A109B109E1CF809162020C94F801FB01E8
:100AF00001900020E9F73197AF01461B570BDC014D
:100B0000ED91FC910280F381E02D09948F929F92E8
:100B1000AF92BF920F931F93CF93DF93CDB7DEB702
:100B2000A1970FB6F894DEBF0FBECDBF19A2423019
:100B300008F44AE08E010F5D1F4F842E912CB12CDA
:100B4000A12CA50194010E946B0DE62FB901CA01E9
:100B5000EA3004F5E05DD801EE938D01232B242BC0
:100B6000252B79F790E080E0109729F0BD0182EE07
:100B700092E00E947705A1960FB6F894DEBF0FBEF3
:100B8000CDBFDF91CF911F910F91BF90AF909F90FC
:100B90008F900895E95CDFCFCF92DF92EF92FF92C2
:100BA000CF93DF936B017C016DE282EE92E00E94B5
:100BB0001D03EC0166277727CB016C197D098E098F
:100BC0009F094AE00E9486058C0F9D1FDF91CF91FF
:100BD000FF90EF90DF90CF900895CF93DF9397FF32
:100BE0000EC00E94CC05EC016EE371E082EE92E053
:100BF0000E9477058C0F9D1FDF91CF9108954AE0E9
:100C00000E948605F0CFCF93DF93BC01990F880B2C
:100C1000990B97FF0EC00E94CC05EC016EE371E0CA
:100C200082EE92E00E9477058C0F9D1FDF91CF919D
:100C300008954AE00E948605F0CF0F931F9380919C
:100C4000040190910501892B49F583E00E948301FD
:100C50009093E5018093E4018091E4019091E50196
:100C60000E9403068091E4019091E5010197B1F49F
:100C700080910C0290910D02A0910E02B0910F0292
:100C8000892B8A2B8B2B69F40E94700260930C02D3
:100C900070930D0280930E0290930F021F910F919B
:100CA00008958091080290910902A0910A02B091E2
:100CB0000B02892B8A2B8B2B89F70E9470020091E3
:100CC0000C0210910D0220910E0230910F02601B58
:100CD000710B820B930B693E734081059105F0F215
:100CE0000E947002609308027093090280930A02C6
:100CF00090930B02D3CFCF93DF93BC0182EE92E0AF
:100D00000E947705EC016EE371E082EE92E00E94B2
:100D100077058C0F9D1FDF91CF91089561157105A7
:100D200011F00C94770590E080E008958091040123
:100D300090910501892B99F482E00E9483019093A0
:100D4000E7018093E60161E471E082EE92E00E94A7
:100D50008E068091E6019091E7010C9403060895B8
:100D60001F920F920FB60F9211242F933F934F9320
:100D70005F936F937F938F939F93AF93BF93EF9303
:100D8000FF938091B900887F803609F44AC0F0F55E
:100D9000883209F4A7C018F5803109F49BC0B8F473
:100DA000882309F4F9C0883009F494C0FF91EF91C9
:100DB000BF91AF919F918F917F916F915F914F9173
:100DC0003F912F910F900FBE0F901F901895883173
:100DD00009F488C0803251F78093AF0214C0803488
:100DE00009F49DC040F48033B9F38833F9F6809359
:100DF000AF0285ECB0C0803509F485C0883509F4B0
:100E000096C0883499F60E943F05D0CF883909F4FE
:100E10008CC038F5883729F050F4883611F08037C7
:100E200029F683E08093B0021092AE0257C0883852
:100E300009F47BC0803919F0803809F0B7CF809170
:100E4000AE02803208F071C0E091AE0281E08E0FF8
:100E50008093AE028091BB00F0E0E257FD4F8083AB
:100E60003DC0803B39F0E0F4803A09F479C0883A1B
:100E700009F09CCF84E08093B00210928B02109214
:100E80008A02E0918802F0918902099580918A0294
:100E900081110FC081E080938A021092680209C01C
:100EA000803C09F4A6CF883C09F4A3CF883B09F025
:100EB0007DCFE0918B0281E08E0F80938B02F0E07A
:100EC000E859FD4F80818093BB0090918B02809107
:100ED0008A0229C08091D5028093BB0085EC809363
:100EE000BC0064CF9091D4028091D302981758F53A
:100EF000E091D40281E08E0F8093D402F0E0ED54B3
:100F0000FD4F8081E9CFE091D40281E08E0F809384
:100F1000D4028091BB00F0E0ED54FD4F80839091AE
:100F2000D4028091D3029817C8F285E8D8CFE09117
:100F3000D40281E08E0F8093D4028091BB00F0E058
:100F4000ED54FD4F80838091B20281115CCF81E02E
:100F50008093B10284EA8093BC001092B00226CF45
:100F600085EC8093BC001092B0028091AE0280327A
:100F700030F4E091AE02F0E0E257FD4F1082609154
:100F8000AE0270E0E0918C02F0918D028EE892E06A
:100F900009951092AE020ACF1092AF0234CF1F9281
:100FA0000F920FB60F9211242F933F938F939F931D
:100FB000AF93BF938091150290911602A0911702F2
:100FC000B09118023091140223E0230F2D3758F509
:100FD0000196A11DB11D20931402809315029093D8
:100FE0001602A0931702B0931802809119029091F3
:100FF0001A02A0911B02B0911C020196A11DB11D05
:101000008093190290931A02A0931B02B0931C02C2
:10101000BF91AF919F918F913F912F910F900FBEF4
:101020000F901F90189526E8230F0296A11DB11D61
:10103000D2CF1F920F920FB60F9211242F933F938E
:101040004F935F936F937F938F939F93AF93BF93D0
:10105000EF93FF93E0910201F09103010995FF9155
:10106000EF91BF91AF919F918F917F916F915F9120
:101070004F913F912F910F900FBE0F901F90189599
:101080001F920F920FB60F9211242F933F934F93FD
:101090005F936F937F938F939F93AF93BF93EF93E0
:1010A000FF93E0910001F09101010995FF91EF910B
:1010B000BF91AF919F918F917F916F915F914F9170
:1010C0003F912F910F900FBE0F901F9018951F9278
:1010D0000F920FB60F9211242F933F934F935F936C
:1010E0006F937F938F939F93AF93BF93EF93FF93F0
:1010F00082EE92E00E94FB02FF91EF91BF91AF91CF
:101100009F918F917F916F915F914F913F912F911F
:101110000F900FBE0F901F9018951F920F920FB651
:101120000F9211242F938F939F93EF93FF93E0914E
:10113000F202F091F3028081E091F802F091F9025D
:1011400082FD1BC090818091FB028F5F8F73209185
:10115000FC02821741F0E091FB02F0E0EE51FD4FFE
:10116000958F8093FB02FF91EF919F918F912F912B
:101170000F900FBE0F901F9018958081F4CFE6ED71
:10118000F2E01382128288EE93E0A0E0B0E0848364
:101190009583A683B78322E131E031832083E2EE99
:1011A000F2E01382128284839583A683B78384E25C
:1011B00091E09183808385EC90E09587848784EC2F
:1011C00090E09787868780EC90E0918B808B81EC14
:1011D00090E0938B828B82EC90E0958B848B86ECF5
:1011E00090E0978B868B118E128E138E148EEFE704
:1011F000F3E01382128286E391E09183808311866B
:1012000087E2848384E1828784E08387148608955B
:10121000789484B5826084BD84B5816084BD85B5D1
:10122000826085BD85B5816085BD80916E008160DD
:1012300080936E0010928100809181008260809383
:101240008100809181008160809381008091800085
:101250008160809380008091B10084608093B100B0
:101260008091B00081608093B00080917A008460AA
:1012700080937A0080917A00826080937A008091D6
:101280007A00816080937A0080917A0080688093F0
:101290007A001092C100E091F202F091F30282E034
:1012A0008083E091EE02F091EF021082E091F00273
:1012B000F091F1028FEC80831092FA02E091F60235
:1012C000F091F70286E08083E091F402F091F5025C
:1012D000808180618083E091F402F091F502808149
:1012E00088608083E091F402F091F502808180684B
:1012F0008083E091F402F091F50280818F7D8083FC
:1013000084E00E948C008BE00E948C008CE00E94A4
:101310008C0085E00E948C00C8E0C0938B0360E0E5
:101320008FE793E00E948A0310925F0210925E02A0
:1013300010926102109260020E94DA0182ED90E048
:10134000909389028093880283ED90E090938D02C0
:1013500080938C021092840380918A03823010F073
:10136000C09384038093870362E370E080E090E0A1
:101370000E943E0260918B038FE793E00E948A03F4
:1013800068EE73E080E090E00E943E0260E38FE749
:1013900093E00E947504CBE4D6E4CE010197F1F707
:1013A00060E38FE793E00E9475042197F1F760E313
:1013B0008FE793E00E94750483E592E00197F1F7CF
:1013C00060E28FE793E00E9475046091840360629D
:1013D00040E08FE793E00E948E0484E080938503D1
:1013E00040E06CE08FE793E00E948E040E94D604F8
:1013F00082E08093860340E066E08FE793E00E94FE
:101400008E0440E062E08FE793E00E948E048BE35D
:101410009FE10197F1F70E94E8048DE196E0909337
:1014200003018093020180916900837F846080932F
:101430006900E99A86E996E09093010180930001A2
:10144000809169008C7F816080936900E89A88EEC2
:10145000482E83E0582E612C712CCBE5D1E005EFAE
:1014600011E090E0C92E90E0D92EEE24E394F12C07
:1014700087E00E948301892B41F1A0900401B09084
:1014800005010E9470022091E9013091EA0140912A
:10149000EB015091EC01621B730B840B950B6C32CA
:1014A00071408105910588F00E9470026093E90106
:1014B0007093EA018093EB019093EC01AB2809F063
:1014C000EBC2F0920501E092040180910401909139
:1014D0000501892B09F03BC1809110029091110206
:1014E000A0911202B0911302892B8A2B8B2BB1F1A0
:1014F0008091FF01811132C00E94A50464E571E072
:101500008FE793E00E948E060E9470028090100286
:1015100090901102A0901202B090130268197909FC
:101520008A099B09A30192010E946B0D7F936F931F
:101530003F932F93DF93CF931F930F930E94930DAD
:1015400065EF71E08FE793E00E948E068DB79EB73E
:1015500008960FB6F8949EBF0FBE8DBF8091100203
:1015600090911102A0911202B0911302892B8A2B43
:101570008B2B09F0ECC08091F401811120C00E94F6
:1015800070026093F0017093F1018093F2019093E7
:10159000F3010E94D60480E00E94A50468E671E091
:1015A0008FE793E00E948E068BE691E00E947B0617
:1015B00061E084E00E94AC0181E08093F4018091BD
:1015C000EF0181113BC08091F4018823B9F10E94A1
:1015D00070028090F0019090F101A090F201B09023
:1015E000F301681979098A099B09683E73408105EE
:1015F000910520F10E9470026093F0017093F10157
:101600008093F2019093F30185E791E00E947B06BD
:101610000E94D60480E00E94A5046FE771E08FE786
:1016200093E00E948E0660E084E00E94AC0161E0DD
:101630008BE00E94AC0181E08093EF018091EE018C
:1016400081113BC08091EF018823B9F10E947002A3
:101650008090F0019090F101A090F201B090F30120
:10166000681979098A099B09683E734081059105CB
:1016700020F10E9470026093F0017093F101809359
:10168000F2019093F30182E891E00E947B060E94B0
:10169000D60480E00E94A5046CE871E08FE793E037
:1016A0000E948E0660E08BE00E94AC0161E08CE05D
:1016B0000E94AC0181E08093EE018091ED018111E7
:1016C00046C08091EE01882309F441C00E94700257
:1016D0008090F0019090F101A090F201B090F301A0
:1016E000681979098A099B09683E7340810591054B
:1016F00070F10E9470026093F0017093F101809389
:10170000F2019093F3010E947002609310027093B3
:10171000110280931202909313028FE891E00E94CD
:101720007B060E94D60480E00E94A50469E971E06E
:101730008FE793E00E948E0660E08CE00E94AC018F
:1017400061E085E00E94AC0181E08093ED01809131
:101750000C0290910D02A0910E02B0910F02892B04
:101760008A2B8B2B81F08091080290910902A09125
:101770000A02B0910B02892B8A2B8B2B21F0F0925D
:101780000501E09204018091040190910501019707
:1017900009F076C180910C0290910D02A0910E0289
:1017A000B0910F02892B8A2B8B2B61F08091040260
:1017B00090910502A0910602B0910702892B8A2B15
:1017C0008B2BD1F08091080290910902A0910A021E
:1017D000B0910B02892B8A2B8B2B09F4A3C080912B
:1017E000000290910102A0910202B0910302892BA4
:1017F0008A2B8B2B09F096C080910C0290910D02E0
:10180000A0910E02B0910F02892B8A2B8B2B71F1C4
:101810008091100290911102A0911202B0911302D6
:101820000097A105B10511F140910C0250910D02F4
:1018300060910E0270910F0284179507A607B707F3
:101840000CF031C140910C0250910D0260910E02DA
:1018500070910F02481B590B6A0B7B0B40930402DB
:10186000509305026093060270930702809108026C
:1018700090910902A0910A02B0910B02892B8A2B48
:101880008B2B41F180910C0290910D02A0910E02E0
:10189000B0910F02892B8A2B8B2BE1F080910802EB
:1018A00090910902A0910A02B0910B0240910C02A2
:1018B00050910D0260910E0270910F02841B950BE6
:1018C000A60BB70B8093000290930102A093020233
:1018D000B09303028FE991E00E947B0669EA71E010
:1018E00082EE92E00E948E066091040270910502E1
:1018F00080910602909107020E94ED056AEB71E06B
:1019000082EE92E00E948E066091000270910102C8
:1019100080910202909103020E94ED058FE991E00F
:101920000E947B068091FF018111AAC00E94D6040B
:101930008091040290910502A0910602B0910702E5
:10194000892B8A2B8B2BE9F180E00E94A50469EC9E
:1019500071E08FE793E00E948E068091FE0188235C
:1019600031F06DEC71E08FE793E00E948E0666ED3A
:1019700071E08FE793E00E948E06609104027091FF
:1019800005028091060290910702A30192010E9434
:101990006B0D7F936F933F932F93DF93CF931F93A1
:1019A0000F930E94930D65EF71E08FE793E00E9423
:1019B0008E068DB79EB708960FB6F8949EBF0FBEE1
:1019C0008DBF8091000290910102A0910202B0911E
:1019D0000302892B8A2B8B2B69F181E00E94A504DD
:1019E00062ED71E08FE793E00E948E066091000245
:1019F000709101028091020290910302A301920171
:101A00000E946B0D7F936F933F932F93DF93CF9340
:101A10001F930F930E94930D65EF71E08FE793E0A2
:101A20000E948E068DB79EB708960FB6F8949EBF9B
:101A30000FBE8DBF8091040290910502A091060215
:101A4000B0910702892B8A2B8B2BB9F4809100026D
:101A500090910102A0910202B0910302892B8A2B7E
:101A60008B2B59F40E94D60480E00E94A50469EDF6
:101A700071E08FE793E00E948E0681E08093FF0182
:101A8000C114D10409F4F4CC0E94E702882309F4BC
:101A9000EFCC0E940000ECCC0E94E80410920501FB
:101AA0001092040112CD21E02093FE0140910C021E
:101AB00050910D0260910E0270910F02841B950BE4
:101AC000A60BB70B8093040290930502A093060225
:101AD000B0930702CBCEA1E21A2EAA1BBB1BFD01BD
:101AE0000DC0AA1FBB1FEE1FFF1FA217B307E407FD
:101AF000F50720F0A21BB30BE40BF50B661F771F55
:101B0000881F991F1A9469F7609570958095909534
:101B10009B01AC01BD01CF010895EE0FFF1F0590A1
:101B2000F491E02D0994AEE0B0E0E9E9FDE00C9419
:101B300042100D891E8986E08C831A8309838FEFFA
:101B40009FE79E838D83AE01475E5F4F6F89788DDF
:101B5000CE0101960E94B60D2F813885020F131F0A
:101B6000F80110822E96E4E00C945E10ABE0B0E039
:101B7000ECEBFDE00C9434107C013B018A01FC018C
:101B800017821682838181FFC8C1CE0101965C0154
:101B9000F7019381F30193FD859193FF81913F01BB
:101BA000882309F453C1853239F493FD859193FF5D
:101BB00081913F01853229F4B70190E00E94A60F80
:101BC000E7CF912C212C312CFFE1F31538F08B322B
:101BD00011F190F4803209F1833229F137FC3CC0D5
:101BE00020ED280F2A3050F536FE20C08AE0989E5E
:101BF000200D1124922E06C08D3291F0803371F7A2
:101C0000689430F8F30193FD859193FF81913F0132
:101C10008111DACF21C0689431F8689432F8F2CF9C
:101C2000689433F8EFCF689434F8ECCFEAE02E9E56
:101C3000200D1124222E689435F8E4CF8E3229F439
:101C400036FC04C1689436F8DDCF8C3619F46894FC
:101C500037F8D8CF8836B1F2982F9F7D95549330BE
:101C6000E0F08336A1F18337C1F1833509F063C019
:101C70002801F2E04F0E511CF801C080D180692D7F
:101C800070E036FC02C06FEF7FEFC6010E94900F3C
:101C90004C01689437F882010AC00C5F1F4FFFE3C4
:101CA000F98388248394912C6501E89437F833FEF6
:101CB0002DC0522C8114910471F5552009F468CF80
:101CC000B70180E290E00E94A60F5A94F6CFF80187
:101CD000808189830E5F1F4FE4CF2801F2E04F0E11
:101CE000511CF801C080D180692D70E036FC02C023
:101CF0006FEF7FEFC6010E949B0F4C018201D5CF91
:101D0000B70180E290E00E94A60F2A9428141904DB
:101D100009F0B0F7CECFF60137FC859137FE8191FF
:101D20006F01B70190E00E94A60F51105A94F1E0A4
:101D30008F1A9108BFCF843619F0893609F077C021
:101D4000F80137FE6BC060817181828193810C5FE5
:101D50001F4FF32DFF763F2E97FF09C0909580957A
:101D6000709561957F4F8F4F9F4F689437F82AE0A9
:101D700030E0A5010E94D60FC82ECA188C2C432C27
:101D800036FE0CC0E89440F8C91440F434FE05C097
:101D900032FC03C0F32DFE7E4F2E892C44FE95C0ED
:101DA000FE01EC0DF11D8081803309F087C0242DE8
:101DB000297E422E842D8870582E43FC95C040FE0B
:101DC0008FC09C2C821418F42C0C922C981844FE72
:101DD00091C0B70180E390E00E94A60F42FE09C0C7
:101DE00088E790E041FE02C088E590E0B7010E94DC
:101DF000A60FC91408F48AC0CA94D12C9FEFC91A3F
:101E0000D90ACA0CDB1CF60182916F01B70190E080
:101E10000E94A60FAC14BD04B1F74FCF6081718151
:101E2000072E000C880B990B0E5F1F4F92CFD32CFF
:101E3000E894D4F82AE030E0853739F1232D297F62
:101E4000D22E8F3601F148F48835A9F0F70186814A
:101E500097812B96E2E10C945010803749F0883737
:101E6000A9F7D4FE02C06894D2F820E130E00DC09A
:101E70006894D4F8F6CF34FE03C0822F8660D82E43
:101E800020E132E002C028E030E0F801D7FE0FC0C8
:101E900060817181828193810C5F1F4FA5010E9437
:101EA000D60FC82ECA183D2CE89437F867CF60814A
:101EB000718190E080E00E5F1F4FF0CF42FC02C0C6
:101EC000839478CF8394839475CF842D867809F496
:101ED00071CFF6CFB70180E290E00E94A60F839405
:101EE0008214C0F3512C73CF522C5818821408F46A
:101EF0006ECFF8CF842D867809F47BCF8BE241FE3C
:101F000080E247FC8DE2B70190E071CFB70180E33A
:101F100090E00E94A60F9A946CCF8FEF9FEF99CF1D
:101F2000FC010590615070400110D8F780959095A4
:101F30008E0F9F1F0895FC016150704001900110A9
:101F4000D8F7809590958E0F9F1F08950F931F933C
:101F5000CF93DF93182F092FEB018B8181FD09C0EF
:101F60001FEF0FEF812F902FDF91CF911F910F91D6
:101F7000089582FF14C02E813F818C819D81281796
:101F800039073CF4E881F981CF0101969983888370
:101F900010838E819F8101969F838E83E3CFE88596
:101FA000F985812F0995892BA1F3DACFFA01AA27A8
:101FB000283051F1203181F1E8946F936E7F6E5F8C
:101FC0007F4F8F4F9F4FAF4FB1E03ED0B4E03CD03A
:101FD000670F781F891F9A1FA11D680F791F8A1F1D
:101FE000911DA11D6A0F711D811D911DA11D20D084
:101FF00009F468943F912AE0269F11243019305D3E
:102000003193DEF6CF010895462F4770405D41932E
:10201000B3E00FD0C9F7F6CF462F4F70405D4A337B
:1020200018F0495D31FD4052419302D0A9F7EACF43
:10203000B4E0A6959795879577956795BA95C9F772
:1020400000976105710508959B01AC010A2E069465
:102050005795479537952795BA95C9F7620F731F1E
:10206000841F951FA01D08952F923F924F925F925B
:102070006F927F928F929F92AF92BF92CF92DF9298
:10208000EF92FF920F931F93CF93DF93CDB7DEB7FD
:10209000CA1BDB0B0FB6F894DEBF0FBECDBF099491
:1020A0002A88398848885F846E847D848C849B84E8
:1020B000AA84B984C884DF80EE80FD800C811B81F6
:1020C000AA81B981CE0FD11D0FB6F894DEBF0FBE25
:0A20D000CDBFED010895F894FFCF95
:1020DA007C027C0201000000400014005400000051
:1020EA0000002B01FE007204D400F700E400D500C2
:1020FA00000000001D037D02AA026A03DB02B90286
:10210A00CD020000000039057D02720471040D0A37
:10211A0000626F7853656E736F72537461746520D1
:10212A003D3E2000437A61733A20002530316473C2
:10213A0020253032646D73003321007475726E206D
:10214A006F6E2031007475726E206F6E203200320D
:10215A0021007475726E206F6E2033003121007475
:10216A0075726E206F6E2034005354415254003CF5
:10217A003D3D3D3D3D3D3D3E00646F67456E7465A6
:10218A007254696D65203D3E2000646F674C617032
:10219A0054696D65203D3E200057656A00205B4505
:1021AA005D00426965673A200050727A657277610C
:0421BA006E6F000044
:00000001FF
